:020000040800F2
:1000000000000120550C0008550600085D06000898
:10001000650600086D06000875060008000000006F
:100020000000000000000000000000007D06000845
:100030008B0600080000000099060008A7060008CB
:10004000A50C0008A50C0008A50C0008A50C0008CC
:10005000A50C0008A50C0008A50C0008A50C0008BC
:10006000A50C0008A50C0008A50C0008A50C0008AC
:10007000A50C0008A50C0008A50C0008A50C00089C
:10008000A50C0008A50C0008A50C0008A50C00088C
:10009000B5060008A50C0008A50C0008A50C000872
:1000A000A50C0008A50C0008A50C0008A50C00086C
:1000B000A50C0008A50C0008A50C0008A50C00085C
:1000C000A50C0008A50C0008A50C0008A50C00084C
:1000D000A50C0008A50C0008A50C0008A50C00083C
:1000E000A50C0008A50C0008A50C0008A50C00082C
:1000F000A50C0008A50C0008A50C0008A50C00081C
:10010000A50C00080000000000000000A50C00087D
:10011000A50C0008A50C0008A50C0008A50C0008FB
:10012000A50C0008A50C0008A50C0008A50C0008EB
:10013000A50C0008A50C000800000000000000004D
:10014000A50C0008A50C0008A50C00080000000084
:10015000000000000000000000000000000000009F
:10016000A50C0008A50C0008A50C0008A50C0008AB
:10017000A50C0008A50C0008A50C0008A50C00089B
:10018000A50C0008A50C00080000000000000000FD
:04019000A50C0008B2
:1001A00010B5054C237833B9044B13B10448AFF3B1
:1001B00000800123237010BDD80100200000000042
:1001C00080B6000808B5034B1BB103490348AFF3E1
:1001D000008008BD00000000DC01002080B600089F
:1001E00001F0FF01102A2BDB10F0070F08D010F8E8
:1001F000013B013A8B422DD010F0070F42B3F6D1EC
:10020000F0B441EA012141EA014122F007047FF004
:1002100000070023F0E80256083C85EA010586EA5B
:10022000010685FA47F5A3FA87F586FA47F6A5FA97
:1002300087F68EB9EED1F0BC01F0FF0102F00702A3
:1002400032B110F8013B013A83EA010313B1F8D14E
:100250000020704701387047002D06BF354603382F
:10026000073815F0010F07D1013015F4807F02BF68
:10027000013015F4C03F0130F0BC0138704700BFB9
:1002800080B58AB000AF07F1140300221A605A60EB
:100290009A60DA601A613C4B5B693B4A43F4002385
:1002A0005361394B5B6903F400233B613B69364B77
:1002B0005B69354A43F480035361334B5B6903F454
:1002C0008003FB60FB68304B5B692F4A43F40033CB
:1002D00053612D4B5B6903F40033BB60BB682A4B51
:1002E0005B69294A43F480235361274B5B6903F41C
:1002F00080237B607B6801224FF40051234800F08B
:10030000F9FF002220214FF0904000F0F3FF00227F
:1003100049F604411E4800F0EDFF002240211B4831
:1003200000F0E8FF4FF401537B610123BB61002320
:10033000FB6100233B6207F114031946134800F0E8
:100340004FFE20237B610123BB610023FB6100235F
:100350003B6207F1140319464FF0904000F040FE55
:1003600049F604437B610123BB610023FB61002349
:100370003B6207F114031946054800F031FE00BF47
:100380002837BD4680BD00BF00100240000800486D
:100390000004004880B588B000AF00F085FC00F094
:1003A00045F8FFF76DFF00F067FA00F0F5FA09F085
:1003B000FBFA00F0A9F800F0D9FB01224FF400513C
:1003C000174800F097FF4FF47A7000F0D3FC09F063
:1003D0008FFF0346134A82FB03129111DA178A1A20
:1003E0004FF47A7101FB02F29B1AFB61381DFB6925
:1003F0000D4A14210AF07CF8B861BB699AB23B1D22
:100400001146184609F08EFB00224FF400510448B3
:1004100000F070FF4FF47A7000F0ACFC00BFCCE746
:1004200000080048D34D621098B6000880B5A6B009
:1004300000AF07F170032822002118460AF0CFF818
:1004400007F15C0300221A605A609A60DA601A6150
:100450003B1D5822002118460AF0C1F801233B67D2
:100460004FF480337B670123FB670223C7F8883092
:100470004FF48033C7F88C304FF40023C7F8903026
:100480000023C7F8943007F17003184602F0FEFB12
:100490000346002B01D000F031F80F23FB65022347
:1004A0003B6600237B664FF48063BB660023FB66DC
:1004B00007F15C030121184603F03CFC0346002BC6
:1004C00001D000F01BF80C4B7B600023FB604FF465
:1004D0008003BB650023BB6300233B643B1D1846C0
:1004E00003F04AFE0346002B01D000F007F800BFDE
:1004F0009837BD4680BD00BF0110220080B400AF18
:1005000072B600BF00BFFDE780B500AF1B4B1C4AB1
:100510001A601A4B4FF482725A60184B4FF4806283
:100520009A60164B4FF44072DA60144B00221A6145
:10053000124B00225A61114B4FF400729A610F4B1B
:100540000022DA610D4B00221A620C4B00225A6223
:100550000A4B00229A62094B0722DA62074B0022FB
:100560001A63064B08225A63044804F023F8034632
:10057000002B01D0FFF7C2FF00BF80BDF4010020B7
:100580000038004080B58AB000AF786007F11403EE
:1005900000221A605A609A60DA601A617B681B68F0
:1005A000174A934228D1174BDB69164A43F480431C
:1005B000D361144BDB6903F480433B613B69114B0E
:1005C0005B69104A43F4802353610E4B5B6903F46B
:1005D0008023FB60FB684FF4C0437B610223BB6157
:1005E0000023FB6103233B6205237B6207F11403B5
:1005F0001946054800F0F4FC00BF2837BD4680BD11
:1006000000380040001002400004004880B483B06D
:1006100000AF0F4B9B690E4A43F0010393610C4BF3
:100620009B6903F001037B607B68094BDB69084A27
:1006300043F08053D361064BDB6903F080533B608A
:100640003B6800BF0C37BD465DF8047B704700BFB8
:100650000010024080B400AF00BFFDE780B400AFDF
:1006600000BFFDE780B400AF00BFFDE780B400AF7E
:1006700000BFFDE780B400AF00BFFDE780B400AF6E
:1006800000BFBD465DF8047B704780B400AF00BF7B
:10069000BD465DF8047B704780B400AF00BFBD4627
:1006A0005DF8047B704780B500AF00F043FB00BFEE
:1006B00080BD000080B500AF024800F020FF00BF01
:1006C00080BD00BF4810002080B400AF0123184651
:1006D000BD465DF8047B704780B582B000AF78609E
:1006E000396009F0CBFF034616221A604FF0FF3342
:1006F00018460837BD4680BD80B582B000AF78602F
:100700004FF0FF317868FFF7E7FF00BFFDE780B5E6
:1007100086B000AFF860B9607A6000237B610AE0C0
:10072000AFF300800146BB685A1CBA60CAB21A70A7
:100730007B6901337B617A697B689A42F0DB7B6875
:1007400018461837BD4680BD80B586B000AFF8604A
:10075000B9607A6000237B6109E0BB685A1CBA600B
:100760001B781846AFF300807B6901337B617A699F
:100770007B689A42F1DB7B6818461837BD4680BD1E
:1007800080B483B000AF78604FF0FF3318460C3769
:10079000BD465DF8047B704780B483B000AF7860DD
:1007A00039603B684FF400525A60002318460C37FA
:1007B000BD465DF8047B704780B483B000AF7860BD
:1007C000012318460C37BD465DF8047B704780B4A2
:1007D00085B000AFF860B9607A600023184614371E
:1007E000BD465DF8047B704780B586B000AF786089
:1007F000144A154BD31A7B617B693B61134B1B6811
:10080000002B02D1114B124A1A60104B1A687B68F8
:1008100013443A699A4207D209F030FF03460C228A
:100820001A604FF0FF3309E0084B1B68FB60074B71
:100830001A687B681344054A1360FB68184618372A
:10084000BD4680BD000001200004000058020020C9
:100850008816002080B400AF064BD3F88830054AD4
:1008600043F47003C2F8883000BFBD465DF8047BD6
:10087000704700BF00ED00E080B596B000AF07F113
:100880004C0300221A605A609A6007F1300300227C
:100890001A605A609A60DA601A615A619A613B1D67
:1008A0002C220021184609F09AFE394B394A1A6069
:1008B000374B47225A60364B00229A60344B40F245
:1008C000E732DA60324B00221A61314B00225A6162
:1008D0002F4B00229A612E4803F017FF0346002B8E
:1008E00001D0FFF70BFE0023FB6400233B650023D0
:1008F0007B6507F14C031946254804F021FC0346AB
:10090000002B01D0FFF7FAFD60233B6300237B63DC
:100910000023BB630023FB6300233B6400237B6451
:100920000023BB6407F1300300221946184803F086
:1009300043FF0346002B01D0FFF7E0FD00237B605F
:100940000023BB600023FB6000233B6100237B612D
:100950004FF40053BB610023FB6100233B624FF067
:1009600000737B620023BB620023FB623B1D1946C0
:10097000074804F071FC0346002B01D0FFF7BEFDD1
:10098000034800F097F800BF5837BD4680BD00BF50
:100990005C020020002C014080B58AB000AF07F156
:1009A0001C0300221A605A609A603B4600221A60BB
:1009B0005A609A60DA601A615A619A61214B224A40
:1009C0001A60204B47225A601E4B00229A601D4B32
:1009D00040F2E732DA601B4B00221A61194B002209
:1009E0009A61184803F091FE0346002B01D0FFF7EF
:1009F00085FD0023FB6100237B6207F11C03194680
:100A0000104804F09DFB0346002B01D0FFF776FD54
:100A100060233B6000237B600023BB6000233B61BD
:100A20003B4600221946074803F0C6FE0346002B4A
:100A300001D0FFF763FD034800F03CF800BF283702
:100A4000BD4680BDA80200200004004080B485B0EF
:100A500000AF78607B681B68134A93420CD1134B3C
:100A60009B69124A43F400639361104B9B6903F442
:100A70000063FB60FB6810E07B681B680C4A9342D4
:100A80000BD10A4BDB69094A43F00203D361074BE0
:100A9000DB6903F00203BB60BB6800BF1437BD46CF
:100AA0005DF8047B704700BF002C0140001002403D
:100AB0000004004080B58AB000AF786007F11403ED
:100AC00000221A605A609A60DA601A617B681B68BB
:100AD000224A93421CD1224B5B69214A43F40023F2
:100AE00053611F4B5B6903F400233B613B690123A6
:100AF0007B610223BB610023FB6100233B62022375
:100B00007B6207F114031946164800F069FA21E0E8
:100B10007B681B68144A93421CD1114B5B69104AD5
:100B200043F4003353610E4B5B6903F40033FB6005
:100B3000FB6840237B610223BB610023FB61002330
:100B40003B6202237B6207F1140319464FF0904089
:100B500000F046FA00BF2837BD4680BD002C01409A
:100B600000100240000800480004004080B500AFBB
:100B7000144B154A1A60134B4FF416425A60114B2E
:100B800000229A600F4B0022DA600E4B00221A619D
:100B90000C4B0C225A610B4B00229A61094B00222C
:100BA000DA61084B00221A62064B00225A6205489D
:100BB00004F0D8FB0346002B01D0FFF79FFC00BFD9
:100BC00080BD00BFF40200200038014080B58AB02B
:100BD00000AF786007F1140300221A605A609A602F
:100BE000DA601A617B681B68174A934227D1174B5A
:100BF0009B69164A43F480439361144B9B6903F449
:100C000080433B613B69114B5B69104A43F400230D
:100C100053610E4B5B6903F40023FB60FB683023D8
:100C20007B610223BB610023FB6103233B6207233B
:100C30007B6207F114031946054800F0D1F900BFA3
:100C40002837BD4680BD00BF00380140001002407B
:100C500000080048DFF834D0FFF7FCFD0C480D49D0
:100C60000D4A002302E0D458C4500433C4188C4207
:100C7000F9D30A4A0A4C002301E013600432A2426D
:100C8000FBD309F001FDFFF785FBFEE70000012023
:100C900000000020D801002014B80008D80100206E
:100CA00088160020FEE7000080B500AF084B1B68E7
:100CB000074A43F010031360032000F04FF90F20A0
:100CC00000F008F8FFF7A2FC0023184680BD00BF23
:100CD0000020024080B582B000AF7860124B1A68E5
:100CE000124B1B7819464FF47A73B3FBF1F3B2FB46
:100CF000F3F3184600F067F90346002B01D00123F7
:100D00000EE07B680F2B0AD8002279684FF0FF3085
:100D100000F02FF9064A7B681360002300E00123EE
:100D200018460837BD4680BD00000020080000209E
:100D30000400002080B400AF064B1B781A46064B17
:100D40001B681344044A136000BFBD465DF8047B72
:100D5000704700BF080000207C03002080B400AF73
:100D6000034B1B681846BD465DF8047B704700BF07
:100D70007C03002080B584B000AF7860FFF7EEFF01
:100D8000B8607B68FB60FB68B3F1FF3F05D00A4B9E
:100D90001B781A46FB681344FB6000BFFFF7DEFFB9
:100DA0000246BB68D31AFA689A42F7D800BF00BF60
:100DB0001037BD4680BD00BF0800002080B485B05C
:100DC00000AF78607B6803F00703FB600C4BDB68C7
:100DD000BB60BA684FF6FF031340BB60FB681A02A2
:100DE000BB68134343F0BF6343F40033BB60044A62
:100DF000BB68D36000BF1437BD465DF8047B704705
:100E000000ED00E080B400AF044BDB681B0A03F088
:100E100007031846BD465DF8047B704700ED00E00F
:100E200080B483B000AF0346FB7197F90730002B05
:100E30000BDBFB7903F01F02074997F907305B09C9
:100E4000012000FA02F241F8232000BF0C37BD4612
:100E50005DF8047B704700BF00E100E080B483B020
:100E600000AF03463960FB7197F90730002B0ADBAE
:100E70003B68DAB20C4997F907301201D2B20B4441
:100E800083F800230AE03B68DAB20849FB7903F0F3
:100E90000F03043B1201D2B20B441A7600BF0C3789
:100EA000BD465DF8047B704700E100E000ED00E026
:100EB00080B489B000AFF860B9607A60FB6803F075
:100EC0000703FB61FB69C3F10703042B28BF04235D
:100ED000BB61FB690433062B02D9FB69033B00E0CD
:100EE00000237B614FF0FF32BB6902FA03F3DA4360
:100EF000BB681A407B699A404FF0FF317B6901FA69
:100F000003F3D9437B680B40134318462437BD468F
:100F10005DF8047B7047000080B582B000AF786058
:100F20007B68013BB3F1807F01D301230FE00A4AC4
:100F30007B68013B53600F214FF0FF30FFF78EFFBE
:100F4000054B00229A60044B07221A6000231846C2
:100F50000837BD4680BD00BF10E000E080B582B01C
:100F600000AF78607868FFF729FF00BF0837BD46FB
:100F700080BD80B586B000AF0346B9607A60FB7370
:100F800000237B61FFF73EFF78617A68B968786972
:100F9000FFF78EFF024697F90F3011461846FFF70C
:100FA0005DFF00BF1837BD4680BD80B582B000AF81
:100FB0000346FB7197F907301846FFF731FF00BF72
:100FC0000837BD4680BD80B582B000AF78607868D4
:100FD000FFF7A2FF034618460837BD4680BD000054
:100FE00080B487B000AF7860396000237B6160E136
:100FF0003B681A6801217B6901FA03F31340FB6027
:10100000FB68002B00F052813B685B6803F0030330
:10101000012B05D03B685B6803F00303022B30D142
:101020007B689B683B617B695B00032202FA03F3E8
:10103000DB433A6913403B613B68DA687B695B00DC
:1010400002FA03F33A6913433B617B683A699A6099
:101050007B685B683B6101227B6902FA03F3DB4337
:101060003A6913403B613B685B681B0903F001026E
:101070007B6902FA03F33A6913433B617B683A697F
:101080005A603B685B6803F00303032B17D07B684F
:10109000DB683B617B695B00032202FA03F3DB43FD
:1010A0003A6913403B613B689A687B695B0002FACE
:1010B00003F33A6913433B617B683A69DA603B6842
:1010C0005B6803F00303022B23D17B69DA087B689A
:1010D000083253F822303B617B6903F007039B0021
:1010E0000F2202FA03F3DB433A6913403B613B688A
:1010F0001A697B6903F007039B0002FA03F33A695C
:1011000013433B617B69DA087B680832396943F82D
:1011100022107B681B683B617B695B00032202FA3B
:1011200003F3DB433A6913403B613B685B6803F0C0
:1011300003027B695B0002FA03F33A6913433B61E4
:101140007B683A691A603B685B6803F44033002BA4
:1011500000F0AC805E4B9B695D4A43F001039361F4
:101160005B4B9B6903F00103BB60BB68594A7B6919
:101170009B08023352F823303B617B6903F0030381
:101180009B000F2202FA03F3DB433A6913403B61F1
:101190007B68B3F1904F25D07B684F4A93421FD0B4
:1011A0007B684E4A934219D07B684D4A934213D0D4
:1011B0007B684C4A93420DD07B684B4A934207D0E0
:1011C0007B684A4A934201D106230CE007230AE0D8
:1011D000052308E0042306E0032304E0022302E0E1
:1011E000012300E000237A6902F003029200934099
:1011F0003A6913433B6137497B699B0802333A697B
:1012000041F823203A4B9B683B61FB68DB433A691A
:1012100013403B613B685B6803F48013002B03D0F1
:101220003A69FB6813433B61314A3B699360304B39
:10123000DB683B61FB68DB433A6913403B613B6819
:101240005B6803F40013002B03D03A69FB68134377
:101250003B61274A3B69D360254B5B683B61FB6878
:10126000DB433A6913403B613B685B6803F400333E
:10127000002B03D03A69FB6813433B611C4A3B696E
:1012800053601B4B1B683B61FB68DB433A691340AF
:101290003B613B685B6803F48033002B03D03A6901
:1012A000FB6813433B61124A3B6913607B6901335E
:1012B0007B613B681A687B6922FA03F3002B7FF499
:1012C00097AE00BF00BF1C37BD465DF8047B70477A
:1012D00000100240000001400004004800080048DF
:1012E000000C004800100048001400480018004896
:1012F0000004014080B483B000AF78600B467B806F
:1013000013467B707B78002B03D07A887B689A61C8
:1013100002E07A887B689A6200BF0C37BD465DF8B0
:10132000047B704780B584B000AF78607B68002B89
:1013300001D10123B9E07B6893F89132DBB2002B35
:1013400006D17B68002283F89022786808F020FD9F
:101350007B68032283F891227B681B68184604F09F
:1013600055FC0023FB733EE0FA7B796813469B0033
:101370001344DB000B44113301221A70FA7B7968A5
:1013800013469B001344DB000B441033FA7B1A70A6
:10139000FA7B796813469B001344DB000B4413333C
:1013A00000221A70FA7B796813469B001344DB0015
:1013B0000B44203300221A60FA7B796813469B00A5
:1013C0001344DB000B44243300221A60FB7B796852
:1013D0005A1C13469B001344DB000B4400221A6086
:1013E000FB7B0133FB737B681B79FA7B9A42BBD38F
:1013F0000023FB7344E0FA7B796813469B00134497
:10140000DB000B4403F2511300221A70FA7B796857
:1014100013469B001344DB000B4403F5A873FA7BCF
:101420001A70FA7B796813469B001344DB000B4467
:1014300003F2531300221A70FA7B796813469B005B
:101440001344DB000B4403F5B07300221A60FA7BEF
:10145000796813469B001344DB000B4403F5B27319
:1014600000221A60FA7B796813469B001344DB0064
:101470000B4403F5B47300221A60FB7B0133FB734A
:101480007B681B79FA7B9A42B5D37B6818687B68C6
:10149000043393E8060004F0D4FB7B6800221A733F
:1014A0007B68012283F89122002318461037BD463D
:1014B00080BD80B582B000AF78607B6893F89032D1
:1014C000012B01D1022316E07B68012283F89022D0
:1014D0007B681B68184604F082FB0121786808F0DD
:1014E000CFFE7B681B68184606F040FE7B68002232
:1014F00083F89022002318460837BD4680BD80B58A
:1015000084B000AF78607B681B68184606F039FE2F
:10151000F860FB6803F40043002B03D0786800F008
:10152000B1FABDE0FB6803F48063002B13D07B6845
:101530001B68B3F844309AB27B681B6822F480625F
:1015400092B2A3F84420786808F09DFC00217868E6
:1015500000F0A9F8A4E0FB6803F48043002B0CD052
:101560007B681B68B3F844309AB27B681B6822F42E
:10157000804292B2A3F8442092E0FB6803F4005347
:10158000002B0CD07B681B68B3F844309AB27B68A0
:101590001B6822F4005292B2A3F8442080E0FB685A
:1015A00003F48053002B27D07B681B68B3F84030CE
:1015B0009AB27B681B6822F0040292B2A3F8402022
:1015C0007B681B68B3F840309AB27B681B6822F0D6
:1015D000080292B2A3F84020786808F08DFC7B687E
:1015E0001B68B3F844309AB27B681B6822F48052BF
:1015F00092B2A3F8442053E0FB6803F40063002B8D
:1016000027D07B681B68B3F840309AB27B681B68B0
:1016100042F0080292B2A3F840207B681B68B3F83E
:1016200044309AB27B681B6822F4006292B2A3F83D
:1016300044207B681B68B3F840309AB27B681B6813
:1016400042F0040292B2A3F84020786808F03AFC15
:1016500026E0FB6803F40073002B0FD07B681B6847
:10166000B3F844309AB27B681B6822F4007292B2DD
:10167000A3F84420786808F0F8FB11E0FB6803F455
:101680008073002B0CD07B681B68B3F844309AB28F
:101690007B681B6822F4807292B2A3F8442000BFDA
:1016A0001037BD4680BD80B582B000AF78600B4674
:1016B000FB707B6893F89032012B01D1022312E07A
:1016C0007B68012283F890227B68FA781A737B6822
:1016D0001B68FA781146184606F034FD7B68002234
:1016E00083F89022002318460837BD4680BD80B598
:1016F00084B000AF7860084611461A460346FB7076
:101700000B463B801346BB700023FB7297F90330F6
:10171000002B0EDAFB7803F0070213469B001344FC
:10172000DB0010337A681344FB60FB6801225A70B7
:101730000EE0FB7803F0070213469B001344DB0026
:1017400003F5A8737A681344FB60FB6800225A70A3
:10175000FB7803F00703DAB2FB681A703A88FB687B
:101760001A61FB68BA78DA70BB78022B02D1FB6889
:1017700000221A717B6893F89032012B01D1022369
:101780000EE07B68012283F890227B681B68F96871
:10179000184604F075FA7B68002283F89022FB7AE1
:1017A00018461037BD4680BD80B584B000AF786064
:1017B0000B46FB7097F90330002B0EDAFB7803F031
:1017C000070213469B001344DB0010337A6813446E
:1017D000FB60FB6801225A700EE0FB7803F0070201
:1017E00013469B001344DB0003F5A8737A68134487
:1017F000FB60FB6800225A70FB7803F00703DAB243
:10180000FB681A707B6893F89032012B01D1022398
:101810000EE07B68012283F890227B681B68F968E0
:10182000184604F0F1FD7B68002283F89022002323
:1018300018461037BD4680BD80B586B000AFF86051
:101840007A603B600B46FB72FB7A03F0070213469B
:101850009B001344DB0003F5A873FA6813447B6113
:101860007B697A685A617B693A689A617B69002270
:10187000DA617B6900225A70FB7A03F00703DAB25F
:101880007B691A70FB681B687969184604F0A9FF28
:10189000002318461837BD4680BD80B483B000AF22
:1018A00078600B46FB70FB7803F0070279681346FB
:1018B0009B001344DB000B4403F5B6731B6818460A
:1018C0000C37BD465DF8047B704780B586B000AF2D
:1018D000F8607A603B600B46FB72FB7A03F007020C
:1018E00013469B001344DB001033FA6813447B61FA
:1018F0007B697A685A617B693A689A617B690122DF
:1019000083F824207B693A681A627B690022DA61D5
:101910007B6901225A70FB7A03F00703DAB27B6914
:101920001A70FB681B687969184604F05AFF002397
:1019300018461837BD4680BD80B584B000AF7860CA
:101940000B46FB70FB7803F007037A681279934229
:1019500001D901233EE097F90330002B0EDAFB7822
:1019600003F0070213469B001344DB0010337A6830
:101970001344FB60FB6801225A700CE0FA781346AE
:101980009B001344DB0003F5A8737A681344FB60E3
:10199000FB6800225A70FB6801229A70FB7803F002
:1019A0000703DAB2FB681A707B6893F89032012B58
:1019B00001D102230EE07B68012283F890227B682C
:1019C0001B68F968184606F0BEFA7B68002283F8A7
:1019D0009022002318461037BD4680BD80B584B0E4
:1019E00000AF78600B46FB70FB7803F00F037A685A
:1019F0001279934201D9012340E097F90330002B7B
:101A00000EDAFB7803F0070213469B001344DB0059
:101A100010337A681344FB60FB6801225A700EE0B1
:101A2000FB7803F0070213469B001344DB0003F529
:101A3000A8737A681344FB60FB6800225A70FB6845
:101A400000229A70FB7803F00703DAB2FB681A7081
:101A50007B6893F89032012B01D102230EE07B6862
:101A6000012283F890227B681B68F968184606F00B
:101A7000BBFA7B68002283F89022002318461037B7
:101A8000BD4680BD80B596B000AF7860ADE37B68A1
:101A90001B68B3F84430A7F84830B7F84830DBB2D9
:101AA00003F00F0387F84F3097F84F30002B40F0CA
:101AB0006F81B7F8483003F01003002B4CD17B68DE
:101AC0001B681B889BB223F4E14323F07003FB8166
:101AD0007B681A68FB896FEA43436FEA53439BB202
:101AE00013807B6810337B657B681B68B3F85030CC
:101AF0009BB21A467B6D1B78DB0013447A68126830
:101B0000134403F202431B88C3F309027B6DDA61BD
:101B10007B6D5A697B6DDB691A447B6D5A610021CC
:101B2000786808F088F97B681B7BDBB2002B00F03B
:101B30005C837B6D9B69002B40F057837B681B7B2C
:101B4000DBB263F07F03DAB27B681B68A3F84C203A
:101B50007B6800221A7348E37B6803F5A8737B65F2
:101B60007B681B681B88A7F84C30B7F84C3003F42F
:101B70000063002B32D07B681B68B3F850309BB2F7
:101B80001A467B6D1B78DB0013447A681268134495
:101B900003F206431B88C3F309027B6DDA617B689D
:101BA00018687B6803F526717B6DDA887B6DDB69CD
:101BB0009BB206F038FB7B681B681B889AB240F624
:101BC0008F7313403B827B681B683A8A42F0800225
:101BD00092B21A80786808F001F906E3B7F94C3040
:101BE000002B80F202837B681B681B889AB240F648
:101BF0008F731340FB837B681B68FA8B42F0800273
:101C000092B21A807B681B68B3F850309BB21A46B8
:101C10007B6D1B78DB0013447A681268134403F26F
:101C200006431B88C3F309027B6DDA617B6DDB69B8
:101C3000002B19D07B6D5B69002B15D07B68186871
:101C40007B6D59697B6DDA887B6DDB699BB206F031
:101C5000EAFA7B6D5A697B6DDB691A447B6D5A61C8
:101C60000021786808F0CCF87B681B681B88A7F80F
:101C70004C30B7F84C3003F40063002B40F0B582D1
:101C8000B7F84C3003F44053B3F5405F00F0AD8239
:101C90007B681B68BB617B681B68B3F850309BB2E4
:101CA0001A46BB691344BB61BB6903F206437B61FF
:101CB0007B691B889BB2C3F309039AB27B691A80C4
:101CC0007B6D1B69002B0AD17B691B889BB26FEA75
:101CD00043436FEA53439AB27B691A8039E07B6DC4
:101CE0001B693E2B18D87B6D1B695B087B647B6D81
:101CF0001B6903F00103002B02D07B6C01337B6472
:101D00007B691B889AB27B6C9BB29B029BB213438C
:101D10009AB27B691A801CE07B6D1B695B097B644E
:101D20007B6D1B6903F01F03002B02D17B6C013B11
:101D30007B647B691B889AB27B6C9BB29B029BB2D3
:101D400013439BB26FEA43436FEA53439AB27B69F2
:101D50001A807B681B681B889BB223F4804323F0A6
:101D600070037B827B8A83F480537B827B8A83F43B
:101D700000537B827B681A687B8A43F07F4343F47D
:101D80007F0343F4004343F080039BB213802CE2B3
:101D90007B681B681A4697F84F309B0013441B88DA
:101DA000A7F84C30B7F94C30002B80F2F6807B68F6
:101DB0001B681A4697F84F309B0013441B889AB251
:101DC00040F68F731340A7F84A307B681B681A46A9
:101DD00097F84F309B001344B7F84A2042F0800236
:101DE00092B21A8097F84F2013469B001344DB00F1
:101DF00003F5A8737A6813447B657B6D1B7B002B0E
:101E000023D17B681B68B3F850309BB21A467B6DB8
:101E10001B78DB0013447A681268134403F206430C
:101E20001B88C3F30903A7F85030B7F85030002BD4
:101E300000F08E807B6818687B6D59697B6DDA884D
:101E4000B7F8503006F0EFF982E07B6DDB78022BBB
:101E50000AD1B7F84C301A46796D786800F0D3F99A
:101E60000346A7F8503073E07B681B681A467B6D09
:101E70001B789B0013441B889BB223F4E04323F0A0
:101E80007003A7F852307B681B681A467B6D1B787D
:101E90009B001A44B7F8523043F07F4343F47F036A
:101EA00043F4004343F0C0039BB213807B681B687C
:101EB0001A467B6D1B789B0013441B889BB203F46E
:101EC0008043002B22D07B681B68B3F850309BB254
:101ED0001A467B6D1B78DB0013447A681268134442
:101EE00003F202431B88C3F30903A7F85030B7F885
:101EF0005030002B2CD07B6818687B6D59697B6D46
:101F00001A89B7F8503006F08EF921E07B681B681B
:101F1000B3F850309BB21A467B6D1B78DB0013443C
:101F20007A681268134403F206431B88C3F309035B
:101F3000A7F85030B7F85030002B09D07B681868EC
:101F40007B6D59697B6D5A89B7F8503006F06BF993
:101F50007B6DDA69B7F850301A447B6DDA617B6DBE
:101F60005A69B7F850301A447B6D5A617B6D9B6992
:101F7000002B05D0B7F850207B6D1B699A4206D222
:101F80007B6D1B781946786807F03AFF05E07B689F
:101F90001B68796D184604F024FCB7F84C3003F048
:101FA0008003002B00F0218197F84F2013469B00FF
:101FB0001344DB0010337A6813447B657B681B682D
:101FC0001A4697F84F309B0013441B889BB223F4AA
:101FD000E14323F07003A7F842307B681B681A4680
:101FE00097F84F309B001A44B7F842306FEA4343EA
:101FF0006FEA53439BB213807B6DDB78012B40F07B
:10200000A2807B6D00229A617B6D1B7B002B00F010
:102010009380B7F84C3003F04003002B46D07B6D23
:102020005B78002B26D17B681B687B627B681B6812
:10203000B3F850309BB21A467B6A13447B627B6DC7
:102040001B78DA007B6A134403F202433B623B6A6B
:102050001B889BB2C3F309039AB23B6A1A803B6A9E
:102060001B889BB26FEA43436FEA53439AB23B6AC1
:102070001A8061E07B6D5B78012B5DD17B681B680A
:10208000FB627B681B68B3F850309BB21A46FB6A50
:102090001344FB627B6D1B78DA00FB6A134403F286
:1020A0000243BB62BB6A00221A8045E07B681B6862
:1020B000FB637B6D5B78002B26D17B681B687B63A1
:1020C0007B681B68B3F850309BB21A467B6B134495
:1020D0007B637B6D1B78DA007B6B134403F2064352
:1020E0003B633B6B1B889BB2C3F309039AB23B6B08
:1020F0001A803B6B1B889BB26FEA43436FEA5343E2
:102100009AB23B6B1A8017E07B6D5B78012B13D181
:102110007B681B68B3F850309BB21A46FB6B1344C4
:10212000FB637B6D1B78DA00FB6B134403F2064301
:10213000BB63BB6B00221A807B6D1B7819467868E5
:1021400007F079FE51E0B7F84C3003F48073002BB0
:1021500044D17B681B68B3F850309BB21A467B6D44
:102160001B78DB0013447A681268134403F20243BD
:102170001B88C3F30903A7F840307B6D9A69B7F851
:1021800040309A4207D97B6D9A69B7F84030D21A2D
:102190007B6D9A6102E07B6D00229A617B6D9B6989
:1021A000002B06D17B6D1B781946786807F043FE3B
:1021B0001BE07B6D5A69B7F840301A447B6D5A6159
:1021C0007B6DDA69B7F840301A447B6DDA617B6861
:1021D0001B68796D184604F004FB06E0B7F84C3034
:1021E0001A46796D786800F017F97B681B68B3F8B8
:1021F00044309BB21BB2002BFFF649AC00231846BB
:102200005837BD4680BD80B588B000AFF860B96072
:102210001346FB80FB8803F48043002B7CD0FB68D3
:102220001B68B3F850309BB21A46BB681B78DB00C2
:102230001344FA681268134403F202431B88C3F381
:1022400009037B83BB689A697B8B9A4206D3BB6880
:102250009A697B8BD21ABB689A6102E0BB68002244
:102260009A61BB689B69002B23D1FB681B681A46E7
:10227000BB681B789B0013441B889BB223F48043EC
:1022800023F070033B833B8B83F400533B83FB6859
:102290001B681A46BB681B789B001A443B8B43F0B3
:1022A0007F4343F47F0343F4004343F080039BB236
:1022B0001380FB8803F04003002B1FD0FB681B68D2
:1022C0001A46BB681B789B0013441B889BB223F4FF
:1022D000E04323F07003FB82FB681B681A46BB686F
:1022E0001B789B001A44FB8A43F07F4343F47F032F
:1022F00043F4004343F0C0039BB213807B8B002B5D
:1023000000F08580FB681868BB685969BB681A894A
:102310007B8B05F088FF7AE0FB681B68B3F85030D0
:102320009BB21A46BB681B78DB001344FA6812683C
:10233000134403F206431B88C3F309037B83BB6882
:102340009A697B8B9A4206D3BB689A697B8BD21AB7
:10235000BB689A6102E0BB6800229A61BB689B6916
:10236000002B23D1FB681B681A46BB681B789B00B7
:1023700013441B889BB223F4804323F07003FB8338
:10238000FB8B83F40053FB83FB681B681A46BB6816
:102390001B789B001A44FB8B43F07F4343F47F037D
:1023A00043F4004343F080039BB21380FB8803F0A7
:1023B0004003002B1FD1FB681B681A46BB681B78C3
:1023C0009B0013441B889BB223F4E04323F070036B
:1023D000BB83FB681B681A46BB681B789B001A44CA
:1023E000BB8B43F07F4343F47F0343F4004343F04C
:1023F000C0039BB213807B8B002B08D0FB6818684E
:10240000BB685969BB685A897B8B05F00CFF7B8BD5
:1024100018462037BD4680BD80B5A4B000AFF86037
:10242000B9601346FB80FB8803F04003002B00F0EB
:10243000DB81FB681B68B3F850309BB21A46BB685F
:102440001B78DB001344FA681268134403F202435A
:102450001B88C3F30903A7F88830BB689A69B7F8EB
:1024600088309A4207D9BB689A69B7F88830D21A7F
:10247000BB689A6102E0BB6800229A61BB689B69F5
:10248000002B40F0B980BB685B78002B26D1FB683D
:102490001B68FB62FB681B68B3F850309BB21A469E
:1024A000FB6A1344FB62BB681B78DA00FB6A1344C7
:1024B00003F20243BB62BB6A1B889BB2C3F30903EE
:1024C0009AB2BB6A1A80BB6A1B889BB26FEA43430D
:1024D0006FEA53439AB2BB6A1A801AE0BB685B7812
:1024E000012B16D1FB681B687B63FB681B68B3F884
:1024F00050309BB21A467B6B13447B63BB681B78DE
:10250000DA007B6B134403F202433B633B6B002214
:102510001A80FB681B687B62BB685B78002B26D146
:10252000FB681B68FB61FB681B68B3F850309BB20B
:102530001A46FB691344FB61BB681B78DA00FB6930
:10254000134403F20643BB61BB691B889BB2C3F310
:1025500009039AB2BB691A80BB691B889BB26FEAF8
:1025600043436FEA53439AB2BB691A8017E0BB68D2
:102570005B78012B13D1FB681B68B3F850309BB21A
:102580001A467B6A13447B62BB681B78DA007B6A5D
:10259000134403F206433B623B6A00221A80BB6885
:1025A0001B781946F86807F046FCFB8803F4804363
:1025B000002B00F0FA82FB681B681A46BB681B7888
:1025C0009B0013441B889BB223F4E04323F0700369
:1025D000FB82FB681B681A46BB681B789B001A4489
:1025E000FB8A43F07F4343F47F0343F4404343F0CB
:1025F00080039BB21380D8E2FB8803F48043002B56
:1026000021D0FB681B681A46BB681B789B001344EB
:102610001B889BB223F4E04323F07003A7F88A30B1
:10262000FB681B681A46BB681B789B001A44B7F806
:102630008A3043F07F4343F47F0343F4404343F045
:1026400080039BB21380BB6893F82430012B40F0C9
:10265000AC82BB685A69B7F888301A44BB685A61C3
:10266000BB68DA69B7F888301A44BB68DA61BB68BE
:102670001A6ABB681B699A420BD3BB681B69C7F80F
:102680008C30BB681A6AD7F88C30D21ABB681A62D1
:1026900017E0BB681B6A002B08D1B7F88830C7F871
:1026A0008C30BB68002283F824200AE0BB6800223B
:1026B00083F82420BB681B6AC7F88C30BB680022F3
:1026C0001A62BB685B78002B65D1FB681B68FB63F3
:1026D000FB681B68B3F850309BB21A46FB6B13447F
:1026E000FB63BB681B78DA00FB6B134403F2024305
:1026F000BB63BB6B1B889BB2C3F309039AB2BB6B72
:102700001A80D7F88C30002B0AD1BB6B1B889BB288
:102710006FEA43436FEA53439AB2BB6B1A8057E0A8
:10272000D7F88C303E2B18D8D7F88C305B08BB64B8
:10273000D7F88C3003F00103002B02D0BB6C0133BF
:10274000BB64BB6B1B889AB2BB6C9BB29B029BB2F7
:1027500013439AB2BB6B1A803AE0D7F88C305B090E
:10276000BB64D7F88C3003F01F03002B02D1BB6C85
:10277000013BBB64BB6B1B889AB2BB6C9BB29B02D8
:102780009BB213439BB26FEA43436FEA53439AB23F
:10279000BB6B1A801CE0BB685B78012B18D1FB680F
:1027A0001B687B64FB681B68B3F850309BB21A4609
:1027B0007B6C13447B64BB681B78DA007B6C13442E
:1027C00003F202433B64D7F88C309AB23B6C1A8018
:1027D000FB681868BB685969BB681A89D7F88C30E0
:1027E0009BB205F0DEFCE0E1FB681B68B3F85030FB
:1027F0009BB21A46BB681B78DB001344FA68126868
:10280000134403F206431B88C3F30903A7F8883077
:10281000BB689A69B7F888309A4207D3BB689A694F
:10282000B7F88830D21ABB689A6102E0BB68002210
:102830009A61BB689B69002B40F0C080BB685B78E5
:10284000002B26D1FB681B68FB67FB681B68B3F88D
:1028500050309BB21A46FB6F1344FB67BB681B7872
:10286000DA00FB6F134403F20243BB67BB6F1B88A4
:102870009BB2C3F309039AB2BB6F1A80BB6F1B886C
:102880009BB26FEA43436FEA53439AB2BB6F1A801D
:102890001AE0BB685B78012B16D1FB681B687B666E
:1028A000FB681B68B3F850309BB21A467B6E13442A
:1028B0007B66BB681B78DA007B6E134403F202432D
:1028C0003B663B6E00221A80FB681B687B67BB6817
:1028D0005B78002B2BD1FB681B68FB66FB681B68D1
:1028E000B3F850309BB21A46FB6E1344FB66BB68CC
:1028F0001B78DA00FB6E134403F20643C7F88430FA
:10290000D7F884301B889BB2C3F309039AB2D7F877
:1029100084301A80D7F884301B889BB26FEA434317
:102920006FEA53439AB2D7F884301A8017E0BB6835
:102930005B78012B13D1FB681B68B3F850309BB256
:102940001A467B6F13447B67BB681B78DA007B6F8A
:10295000134403F206433B673B6F00221A80BB68B7
:102960001B781946F86807F066FAFB8803F4804381
:10297000002B40F01A81FB681B681A46BB681B7865
:102980009B0013441B889BB223F4E04323F07003A5
:10299000A7F88230FB681B681A46BB681B789B004F
:1029A0001A44B7F8823043F07F4343F47F0343F483
:1029B000404343F080039BB21380F6E0FB8803F4AE
:1029C0008043002B21D1FB681B681A46BB681B782B
:1029D0009B0013441B889BB223F4E04323F0700355
:1029E000A7F84E30FB681B681A46BB681B789B0033
:1029F0001A44B7F84E3043F07F4343F47F0343F467
:102A0000404343F080039BB21380BB6893F82430AB
:102A1000012B40F0CA80BB685A69B7F888301A4465
:102A2000BB685A61BB68DA69B7F888301A44BB687A
:102A3000DA61BB681A6ABB681B699A420BD3BB6830
:102A40001B69C7F88C30BB681A6AD7F88C30D21A69
:102A5000BB681A6217E0BB681B6A002B08D1B7F885
:102A60008830C7F88C30BB68002283F824200AE045
:102A7000BB681B6AC7F88C30BB6800221A62BB684F
:102A8000002283F82420FB681B687B65BB685B78A9
:102A9000002B65D1FB681B68FB65FB681B68B3F8FE
:102AA00050309BB21A46FB6D1344FB65BB681B7824
:102AB000DA00FB6D134403F20643BB65BB6D1B8854
:102AC0009BB2C3F309039AB2BB6D1A80D7F88C305E
:102AD000002B0AD1BB6D1B889BB26FEA43436FEAA0
:102AE00053439AB2BB6D1A8054E0D7F88C303E2B1A
:102AF00018D8D7F88C305B08BB66D7F88C3003F059
:102B00000103002B02D0BB6E0133BB66BB6D1B887B
:102B10009AB2BB6E9BB29B029BB213439AB2BB6D3F
:102B20001A8037E0D7F88C305B09BB66D7F88C3059
:102B300003F01F03002B02D1BB6E013BBB66BB6DD4
:102B40001B889AB2BB6E9BB29B029BB213439BB293
:102B50006FEA43436FEA53439AB2BB6D1A8019E0A0
:102B6000BB685B78012B15D1FB681B68B3F850304C
:102B70009BB21A467B6D13447B65BB681B78DA00F9
:102B80007B6D134403F206433B65D7F88C309AB251
:102B90003B6D1A80FB681868BB685969BB685A8925
:102BA000D7F88C309BB205F0FCFAFB681B681A461C
:102BB000BB681B789B0013441B889BB223F4E04343
:102BC00023F04003BB82BB8A83F01003BB82BB8A25
:102BD00083F02003BB82FB681B681A46BB681B7826
:102BE0009B001A44BB8A43F07F4343F47F0343F4C2
:102BF000004343F080039BB21380002318469037B4
:102C0000BD4680BD80B487B000AFF8607B600B46E6
:102C10007B8113463B817B8903F080039BB2002BB1
:102C20000BD07B8903F0070213469B001344DB00A3
:102C30001033FA6813447B6109E07A8913469B00DC
:102C40001344DB0003F5A873FA6813447B613B89E6
:102C5000002B07D17B6900221A737B689AB27B69CB
:102C6000DA800BE07B6901221A737B689AB27B6978
:102C70001A817B681B0C9AB27B695A810023184623
:102C80001C37BD465DF8047B7047000080B5ADF58C
:102C9000027D00AF07F50273A3F50173186007F515
:102CA0000273A3F501731B68002B02D1012301F00D
:102CB0003AB807F50273A3F501731B681B6803F0AC
:102CC0000103002B00F06F81B54B5B6803F00C0330
:102CD000042B0CD0B24B5B6803F00C03082B5CD1C7
:102CE000AF4B5B6803F4C033B3F5803F55D14FF46D
:102CF0000033C7F8F431D7F8F43193FAA3F3C7F8E7
:102D0000F031D7F8F031B3FA83F3DBB25B09DBB211
:102D100043F00103DBB2012B02D1A14B1B6815E08C
:102D20004FF40033C7F8EC31D7F8EC3193FAA3F342
:102D3000C7F8E8314FF40033C7F8E431D7F8E4318D
:102D400093FAA3F3C7F8E031954B5B6A4FF4003276
:102D5000C7F8DC21D7F8DC2192FAA2F2C7F8D82113
:102D6000D7F8D821B2FA82F2D2B242F02002D2B21F
:102D700002F01F02012101FA02F21340002B00F0C1
:102D8000118107F50273A3F501731B685B68002BC3
:102D900040F00881012300F0C6BF07F50273A3F5D8
:102DA00001731B685B68B3F5803F06D17C4B1B68E1
:102DB0007B4A43F48033136036E007F50273A3F5D2
:102DC00001731B685B68002B0CD1754B1B68744A40
:102DD00023F480331360724B1B68714A23F4802301
:102DE000136021E007F50273A3F501731B685B68AC
:102DF000B3F5A02F0CD16A4B1B68694A43F48023BA
:102E00001360674B1B68664A43F4803313600BE022
:102E1000634B1B68624A23F480331360604B1B686A
:102E20005F4A23F48023136007F50273A3F501734F
:102E30001B685B68002B59D0FDF790FFC7F80002B4
:102E40000AE0FDF78BFF0246D7F80032D31A642B55
:102E500002D9032300F067BF4FF40033C7F8D43121
:102E6000D7F8D43193FAA3F3C7F8D031D7F8D031DB
:102E7000B3FA83F3DBB25B09DBB243F00103DBB2ED
:102E8000012B02D1464B1B6815E04FF40033C7F805
:102E9000CC31D7F8CC3193FAA3F3C7F8C8314FF44B
:102EA0000033C7F8C431D7F8C43193FAA3F3C7F895
:102EB000C0313B4B5B6A4FF40032C7F8BC21D7F8F6
:102EC000BC2192FAA2F2C7F8B821D7F8B821B2FA19
:102ED00082F2D2B242F02002D2B202F01F020121ED
:102EE00001FA02F21340002BABD05CE0FDF736FF95
:102EF000C7F800020AE0FDF731FF0246D7F80032BA
:102F0000D31A642B02D9032300F00DBF4FF4003312
:102F1000C7F8B431D7F8B43193FAA3F3C7F8B03196
:102F2000D7F8B031B3FA83F3DBB25B09DBB243F01D
:102F30000103DBB2012B02D1194B1B6815E04FF4E2
:102F40000033C7F8AC31D7F8AC3193FAA3F3C7F824
:102F5000A8314FF40033C7F8A431D7F8A43193FA5D
:102F6000A3F3C7F8A0310E4B5B6A4FF40032C7F8E9
:102F70009C21D7F89C2192FAA2F2C7F89821D7F8A1
:102F80009821B2FA82F2D2B242F02002D2B202F01A
:102F90001F02012101FA02F21340002BABD102E023
:102FA0000010024000BF07F50273A3F501731B6810
:102FB0001B6803F00203002B00F07F81A74B5B68C6
:102FC00003F00C03002B0CD0A44B5B6803F00C0344
:102FD000082B73D1A14B5B6803F4C033B3F5004FEA
:102FE0006CD10223C7F89431D7F8943193FAA3F344
:102FF000C7F89031D7F89031B3FA83F3DBB25B09AD
:10300000DBB243F00103DBB2012B02D1934B1B680F
:1030100013E00223C7F88C31D7F88C3193FAA3F36D
:10302000C7F888310223C7F88431D7F8843193FA7E
:10303000A3F3C7F88031894B5B6A0222C7F87C2171
:10304000D7F87C2192FAA2F2C7F87821D7F8782134
:10305000B2FA82F2D2B242F02002D2B202F01F02E1
:10306000012101FA02F21340002B0AD007F5027386
:10307000A3F501731B68DB68012B02D0012300F06C
:1030800052BE764B1B6823F0F80207F50273A3F5D6
:1030900001731B681B69F821C7F87411D7F8741104
:1030A00091FAA1F1C7F87011D7F87011B1FA81F156
:1030B000C9B28B40694913430B60FEE007F5027308
:1030C000A3F501731B68DB68002B00F088800123E7
:1030D000C7F86C31D7F86C3193FAA3F3C7F86831AD
:1030E000D7F86831B3FA83F3DBB203F1845303F505
:1030F00084139B001A4601231360FDF72FFEC7F8C7
:1031000000020AE0FDF72AFE0246D7F80032D31A81
:10311000022B02D9032300F006BE0223C7F8643154
:10312000D7F8643193FAA3F3C7F86031D7F8603168
:10313000B3FA83F3DBB25B09DBB243F00103DBB22A
:10314000012B02D1454B1B6813E00223C7F85C3109
:10315000D7F85C3193FAA3F3C7F858310223C7F8C4
:103160005431D7F8543193FAA3F3C7F850313B4B9D
:103170005B6A0222C7F84C21D7F84C2192FAA2F2DE
:10318000C7F84821D7F84821B2FA82F2D2B242F009
:103190002002D2B202F01F02012101FA02F2134012
:1031A000002BAFD02D4B1B6823F0F80207F50273FC
:1031B000A3F501731B681B69F821C7F84411D7F800
:1031C000441191FAA1F1C7F84011D7F84011B1FAB2
:1031D00081F1C9B28B40214913430B606DE001239B
:1031E000C7F83C31D7F83C3193FAA3F3C7F838312C
:1031F000D7F83831B3FA83F3DBB203F1845303F524
:1032000084139B001A4600231360FDF7A7FDC7F83F
:1032100000020AE0FDF7A2FD0246D7F80032D31AF9
:10322000022B02D9032300F07EBD0223C7F83431FC
:10323000D7F8343193FAA3F3C7F83031D7F83031E7
:10324000B3FA83F3DBB25B09DBB243F00103DBB219
:10325000012B05D1014B1B6816E000BF0010024096
:103260000223C7F82C31D7F82C3193FAA3F3C7F80F
:1032700028310223C7F82431D7F8243193FAA3F375
:10328000C7F82031BF4B5B6A0222C7F81C21D7F870
:103290001C2192FAA2F2C7F81821D7F81821B2FA25
:1032A00082F2D2B242F02002D2B202F01F02012119
:1032B00001FA02F21340002BACD107F50273A3F51B
:1032C00001731B681B6803F00803002B00F01381D7
:1032D00007F50273A3F501731B685B69002B7CD0B3
:1032E0000123C7F81431D7F8143193FAA3F3C7F8C0
:1032F0001031D7F81031B3FA83F3DBB21A46A24B80
:1033000013449B001A4601231360FDF727FDC7F8FD
:1033100000020AE0FDF722FD0246D7F80032D31A78
:10332000022B02D9032300F0FEBC0223C7F80C31A4
:10333000D7F80C3193FAA3F207F50273A3F5807363
:103340001A6007F50273A3F5827302221A6007F56B
:103350000273A3F582731B6893FAA3F207F5027355
:10336000A3F584731A6007F50273A3F5867302222E
:103370001A6007F50273A3F586731B6893FAA3F22C
:1033800007F50273A3F588731A607E4B5A6A07F536
:103390000273A3F58A730221196007F50273A3F57E
:1033A0008A731B6893FAA3F107F50273A3F58C7374
:1033B000196007F50273A3F58C731B68B3FA83F3E6
:1033C000DBB243F06003DBB203F01F03012101FA1B
:1033D00003F31340002B9DD08DE007F50273A3F596
:1033E0008E7301221A6007F50273A3F58E731B68B2
:1033F00093FAA3F207F50273A3F590731A6007F529
:103400000273A3F590731B68B3FA83F3DBB21A4619
:103410005D4B13449B001A4600231360FDF79EFC8E
:10342000C7F800020AE0FDF799FC0246D7F800321F
:10343000D31A022B02D9032300F075BC07F50273DF
:10344000A3F5927302221A6007F50273A3F5927333
:103450001B6893FAA3F207F50273A3F594731A603D
:1034600007F50273A3F5967302221A6007F502733B
:10347000A3F596731B6893FAA3F207F50273A3F5FD
:1034800098731A6007F50273A3F59A7302221A6003
:1034900007F50273A3F59A731B6893FAA3F207F575
:1034A0000273A3F59C731A60364B5A6A07F50273D0
:1034B000A3F59E730221196007F50273A3F59E73AD
:1034C0001B6893FAA3F107F50273A3F5A0731960C3
:1034D00007F50273A3F5A0731B68B3FA83F3DBB29D
:1034E00043F06003DBB203F01F03012101FA03F391
:1034F0001340002B97D107F50273A3F501731B68E6
:103500001B6803F00403002B00F0A581002387F85B
:1035100007321C4BDB6903F08053002B16D1194B8B
:10352000DB69184A43F08053D361164BDB6903F023
:10353000805207F50273A3F5FE731A6007F5027354
:10354000A3F5FE731B68012387F807320F4B1B6836
:1035500003F48073002B21D10C4B1B680B4A43F4FE
:1035600080731360FDF7FAFBC7F8000210E0FDF767
:10357000F5FB0246D7F80032D31A642B08D903238F
:10358000D1E300BF00100240208190100070004085
:103590008D4B1B6803F48073002BE8D007F5027392
:1035A000A3F501731B689B68012B06D1874B1B6A2F
:1035B000864A43F00103136235E007F50273A3F571
:1035C00001731B689B68002B0CD1804B1B6A7F4AE0
:1035D00023F0010313627D4B1B6A7C4A23F0040332
:1035E000136220E007F50273A3F501731B689B6863
:1035F000052B0CD1754B1B6A744A43F0040313620C
:10360000724B1B6A714A43F0010313620BE06F4B6C
:103610001B6A6E4A23F0010313626C4B1B6A6B4AF0
:1036200023F00403136207F50273A3F501731B680B
:103630009B68002B00F08180FDF790FBC7F800022B
:103640000BE0FDF78BFB0246D7F80032D31A41F2AC
:103650008832934201D9032365E307F50273A3F58A
:10366000A27302221A6007F50273A3F5A2731B6806
:1036700093FAA3F207F50273A3F5A4731A6007F592
:103680000273A3F5A67302221A6007F50273A3F56D
:10369000A6731B6893FAA3F207F50273A3F5A87348
:1036A0001A6007F50273A3F5A8731B68B3FA83F3D6
:1036B000DBB25B09DBB243F00203DBB2022B02D1C7
:1036C000424B1B6A13E007F50273A3F5AA730222AB
:1036D0001A6007F50273A3F5AA731B6893FAA3F2A5
:1036E00007F50273A3F5AC731A60384B5B6A07F5F4
:1036F0000272A2F5AE720221116007F50272A2F504
:10370000AE72126892FAA2F107F50272A2F5B072D7
:10371000116007F50272A2F5B0721268B2FA82F275
:10372000D2B242F04002D2B202F01F02012101FAED
:1037300002F21340002B84D083E0FDF70FFBC7F8A3
:1037400000020BE0FDF70AFB0246D7F80032D31A5D
:1037500041F28832934201D90323E4E207F5027370
:10376000A3F5B27302221A6007F50273A3F5B273D0
:103770001B6893FAA3F207F50273A3F5B4731A60FA
:1037800007F50273A3F5B67302221A6007F50273F8
:10379000A3F5B6731B6893FAA3F207F50273A3F5BA
:1037A000B8731A6007F50273A3F5B8731B68B3FA10
:1037B00083F3DBB25B09DBB243F00203DBB2022B23
:1037C00006D1024B1B6A17E0007000400010024057
:1037D00007F50273A3F5BA7302221A6007F50273A4
:1037E000A3F5BA731B6893FAA3F207F50273A3F566
:1037F000BC731A60B34B5B6A07F50272A2F5BE7226
:103800000221116007F50272A2F5BE72126892FAE7
:10381000A2F107F50272A2F5C072116007F50272FB
:10382000A2F5C0721268B2FA82F2D2B242F040023D
:10383000D2B202F01F02012101FA02F21340002B62
:1038400080D197F80732012B05D19E4BDB699D4A49
:1038500023F08053D36107F50273A3F501731B684E
:103860009B69002B00F05E82964B5B6803F00C03B3
:10387000082B00F01F8207F50273A3F501731B6884
:103880009B69022B40F0708107F50273A3F5C273A8
:103890004FF080721A6007F50273A3F5C2731B68BC
:1038A00093FAA3F207F50273A3F5C4731A6007F540
:1038B0000273A3F5C4731B68B3FA83F3DBB203F19D
:1038C000845303F584139B001A4600231360FDF70D
:1038D00045FAC7F8000209E0FDF740FA0246D7F8BA
:1038E0000032D31A022B01D903231CE207F502731D
:1038F000A3F5C6734FF000721A6007F50273A3F5C3
:10390000C6731B6893FAA3F207F50273A3F5C87395
:103910001A6007F50273A3F5C8731B68B3FA83F343
:10392000DBB25B09DBB243F00103DBB2012B02D156
:10393000644B1B6827E007F50273A3F5CA734FF0C9
:1039400000721A6007F50273A3F5CA731B6893FA35
:10395000A3F207F50273A3F5CC731A6007F502739F
:10396000A3F5CE734FF000721A6007F50273A3F54A
:10397000CE731B6893FAA3F207F50273A3F5D07315
:103980001A60504B5B6A07F50272A2F5D2724FF0D3
:103990000071116007F50272A2F5D272126892FAF4
:1039A000A2F107F50272A2F5D472116007F5027256
:1039B000A2F5D4721268B2FA82F2D2B242F02002B8
:1039C000D2B202F01F02012101FA02F21340002BD1
:1039D00082D13C4BDB6A23F00F0207F50273A3F59B
:1039E00001731B685B6A37491343CB62354B5B68D5
:1039F00023F4761207F50273A3F501731B68196AA5
:103A000007F50273A3F501731B68DB690B432D49AE
:103A100013434B6007F50273A3F5D6734FF0807222
:103A20001A6007F50273A3F5D6731B6893FAA3F225
:103A300007F50273A3F5D8731A6007F50273A3F5AF
:103A4000D8731B68B3FA83F3DBB203F1845303F535
:103A500084139B001A4601231360FDF77FF9C7F812
:103A6000000209E0FDF77AF90246D7F80032D31ACE
:103A7000022B01D9032356E107F50273A3F5DA738C
:103A80004FF000721A6007F50273A3F5DA731B6832
:103A900093FAA3F207F50273A3F5DC731A6007F536
:103AA0000273A3F5DC731B68B3FA83F3DBB25B0923
:103AB000DBB243F00103DBB2012B05D1014B1B68E4
:103AC0002AE000BF0010024007F50273A3F5DE7381
:103AD0004FF000721A6007F50273A3F5DE731B68DE
:103AE00093FAA3F207F50273A3F5E0731A6007F5E2
:103AF0000273A3F5E2734FF000721A6007F50273C8
:103B0000A3F5E2731B6893FAA3F207F50273A3F51A
:103B1000E4731A60864B5B6A07F50272A2F5E672DF
:103B20004FF00071116007F50272A2F5E67212689B
:103B300092FAA2F107F50272A2F5E872116007F598
:103B40000272A2F5E8721268B2FA82F2D2B242F0C0
:103B50002002D2B202F01F02012101FA02F2134048
:103B6000002B3FF47FAFDDE007F50273A3F5EA73A6
:103B70004FF080721A6007F50273A3F5EA731B68B1
:103B800093FAA3F207F50273A3F5EC731A6007F535
:103B90000273A3F5EC731B68B3FA83F3DBB203F192
:103BA000845303F584139B001A4600231360FDF72A
:103BB000D5F8C7F8000209E0FDF7D0F80246D7F8BB
:103BC0000032D31A022B01D90323ACE007F50273AC
:103BD000A3F5EE734FF000721A6007F50273A3F5B8
:103BE000EE731B6893FAA3F207F50273A3F5F07363
:103BF0001A6007F50273A3F5F0731B68B3FA83F339
:103C0000DBB25B09DBB243F00103DBB2012B02D173
:103C1000474B1B6827E007F50273A3F5F2734FF0DB
:103C200000721A6007F50273A3F5F2731B6893FA2A
:103C3000A3F207F50273A3F5F4731A6007F5027394
:103C4000A3F5F6734FF000721A6007F50273A3F53F
:103C5000F6731B6893FAA3F207F50273A3F5F873E2
:103C60001A60334B5B6A07F50272A2F5FA724FF0E5
:103C70000071116007F50272A2F5FA72126892FAE9
:103C8000A2F107F50272A2F5FC72116007F502724B
:103C9000A2F5FC721268B2FA82F2D2B242F02002AD
:103CA000D2B202F01F02012101FA02F21340002BEE
:103CB00082D137E007F50273A3F501731B689B6996
:103CC000012B01D101232EE0194B5B68C7F8FC31B1
:103CD000174BDB6AC7F8F831D7F8FC3103F4C03270
:103CE00007F50273A3F501731B68DB699A4217D1CC
:103CF000D7F8FC3103F4701207F50273A3F50173D2
:103D00001B681B6A9A420BD1D7F8F83103F00F02F7
:103D100007F50273A3F501731B685B6A9A4201D031
:103D2000012300E00023184607F50277BD4680BD59
:103D30000010024080B59EB000AF7860396000236B
:103D40007B677B68002B01D1012362E1904B1B68EC
:103D500003F007033A689A4210D98D4B1B6823F091
:103D600007028B493B6813430B60894B1B6803F0C8
:103D700007033A689A4201D001234AE17B681B6835
:103D800003F00203002B08D0824B5B6823F0F002A3
:103D90007B689B687F4913434B607B681B6803F01B
:103DA0000103002B00F0DC807B685B68012B3CD1B9
:103DB0004FF400333B673B6F93FAA3F3FB66FB6E54
:103DC000B3FA83F3DBB25B09DBB243F00103DBB28E
:103DD000012B02D16F4B1B680FE04FF40033BB6621
:103DE000BB6E93FAA3F37B664FF400333B663B6EE6
:103DF00093FAA3F3FB65674B5B6A4FF40032BA6535
:103E0000BA6D92FAA2F27A657A6DB2FA82F2D2B201
:103E100042F02002D2B202F01F02012101FA02F2A6
:103E20001340002B7BD10123F3E07B685B68022BFE
:103E30003CD14FF000733B653B6D93FAA3F3FB64F9
:103E4000FB6CB3FA83F3DBB25B09DBB243F0010333
:103E5000DBB2012B02D14F4B1B680FE04FF0007318
:103E6000BB64BB6C93FAA3F37B644FF000733B64B9
:103E70003B6C93FAA3F3FB63464B5B6A4FF0007213
:103E8000BA63BA6B92FAA2F27A637A6BB2FA82F2EE
:103E9000D2B242F02002D2B202F01F02012101FA96
:103EA00002F21340002B3AD10123B2E002233B631C
:103EB0003B6B93FAA3F3FB62FB6AB3FA83F3DBB2C7
:103EC0005B09DBB243F00103DBB2012B02D1314BC2
:103ED0001B680DE00223BB62BB6A93FAA3F37B620B
:103EE00002233B623B6A93FAA3F3FB61294B5B6AB3
:103EF0000222BA61BA6992FAA2F27A617A69B2FAD6
:103F000082F2D2B242F02002D2B202F01F020121AC
:103F100001FA02F21340002B01D1012379E01D4B7D
:103F20005B6823F003027B685B681A4913434B60AC
:103F3000FCF714FF78670AE0FCF710FF02467B6F7E
:103F4000D31A41F28832934201D9032361E0114B25
:103F50005B6803F00C027B685B689B009A42EBD1C4
:103F60000B4B1B6803F007033A689A4214D2084BC4
:103F70001B6823F0070206493B6813430B60044BA0
:103F80001B6803F007033A689A4205D0012340E01A
:103F900000200240001002407B681B6803F004030D
:103FA000002B08D01D4B5B6823F4E0627B68DB6864
:103FB0001A4913434B607B681B6803F00803002B0E
:103FC00009D0164B5B6823F460527B681B69DB00E9
:103FD000124913434B6000F029F801460F4B5B6810
:103FE00003F0F003F0223A613A6992FAA2F2FA6021
:103FF000FA68B2FA82F2D2B2D340094AD35C21FA0B
:1040000003F3084A1360084B1B681846FCF762FE6E
:10401000002318467837BD4680BD00BF001002401F
:10402000ECB60008000000200400002080B487B037
:1040300000AF0023FB600023BB6000237B610023F3
:104040007B6000233B611F4B5B68FB60FB6803F0F8
:104050000C03042B02D0082B03D029E01A4B3B6140
:1040600029E0FB689B0C03F00F03184AD35C7B60CC
:10407000144BDB6A03F00F03154AD35CBB60FB688B
:1040800003F48033002B08D00F4ABB68B2FBF3F275
:104090007B6802FB03F37B6107E00E4ABB68B2FB5F
:1040A000F3F27B6802FB03F37B617B693B6102E017
:1040B000084B3B6100BF3B6918461C37BD465DF8A5
:1040C000047B704700100240001BB70004B70008D3
:1040D00014B7000800127A0080B400AF034B1B68CD
:1040E0001846BD465DF8047B704700BF0000002005
:1040F00080B582B000AFFFF7EFFF01460B4B5B6866
:1041000003F4E0634FF4E0627A607A6892FAA2F214
:104110003A603A68B2FA82F2D2B2D340044AD35C2F
:1041200021FA03F318460837BD4680BD001002404F
:10413000FCB6000880B582B000AFFFF7CDFF0146A6
:104140000B4B5B6803F460534FF460527A607A68FB
:1041500092FAA2F23A603A68B2FA82F2D2B2D3404C
:10416000044AD35C21FA03F318460837BD4680BDE4
:1041700000100240FCB6000880B592B000AF786035
:1041800000233B640023FB63002387F847307B68F0
:104190001B6803F48033002B00F0D4804E4BDB69A6
:1041A00003F08053002B0ED14B4BDB694A4A43F09E
:1041B0008053D361484BDB6903F08053BB60BB681D
:1041C000012387F84730454B1B6803F48073002BAD
:1041D00018D1424B1B68414A43F480731360FCF7CB
:1041E000BDFD386408E0FCF7B9FD02463B6CD31A0C
:1041F000642B01D90323D6E1384B1B6803F4807389
:10420000002BF0D0344B1B6A03F44073FB63FB6B51
:10421000002B00F084807B685B6803F44073FA6BCA
:104220009A427CD02C4B1B6A23F44073FB634FF4FF
:1042300080333B633B6B93FAA3F3FB62FB6AB3FAF5
:1042400083F3DBB21A46264B13449B001A46012324
:1042500013604FF48033BB63BB6B93FAA3F37B63B0
:104260007B6BB3FA83F3DBB21A461D4B13449B00FE
:104270001A4600231360184AFB6B1362FB6B03F0B2
:104280000103002B4BD0FCF769FD38640AE0FCF712
:1042900065FD02463B6CD31A41F28832934201D944
:1042A000032380E10223BB62BB6A93FAA3F37B6220
:1042B00002233B623B6A93FAA3F3FB61FB69B3FA07
:1042C00083F3DBB25B09DBB243F00203DBB2022B08
:1042D00008D1014B1B6A0DE0001002400070004045
:1042E000008190100223BB61BB6993FAA3F37B6149
:1042F0009A4B5B6A02223A613A6992FAA2F2FA6038
:10430000FA68B2FA82F2D2B242F04002D2B202F0BD
:104310001F02012101FA02F21340002BB7D08F4B8C
:104320001B6A23F440727B685B688C4913430B6201
:1043300097F84730012B05D1884BDB69874A23F07A
:104340008053D3617B681B6803F00103002B08D006
:10435000824B1B6B23F003027B689B687F491343EE
:104360000B637B681B6803F00203002B08D07B4BB8
:104370001B6B23F440327B68DB68784913430B6383
:104380007B681B6803F00403002B08D0734B1B6B86
:1043900023F440227B681B69704913430B637B68DD
:1043A0001B6803F02003002B08D06C4B1B6B23F021
:1043B00010027B68DB69694913430B637B681B68E8
:1043C00003F40033002B08D0644B5B6823F48002B5
:1043D0007B685B6D614913434B607B681B6803F02E
:1043E0004003002B08D05D4B1B6B23F020027B6841
:1043F0001B6A5A4913430B637B681B6803F48023D1
:10440000002B08D0554B1B6B23F040027B685B6A86
:10441000524913430B637B681B6803F00803002BAE
:1044200008D04E4B1B6B23F440127B685B694B49F1
:1044300013430B637B681B6803F01003002B08D049
:10444000464B1B6B23F440027B689B694349134333
:104450000B637B681B6803F40073002B08D03F4B91
:104460005B6823F400027B681B6B3C4913434B6081
:104470007B681B6803F08003002B08D0374BDB6A96
:1044800023F4F8727B689B6A34491343CB627B68E0
:104490001B6803F48073002B08D0304BDB6A23F4D5
:1044A00078527B68DB6A2D491343CB627B681B68BB
:1044B00003F48053002B08D0284B1B6B23F480722D
:1044C0007B685B6B254913430B637B681B6803F4B4
:1044D0000053002B08D0214B1B6B23F400727B6828
:1044E0001B6C1E4913430B637B681B6803F480132A
:1044F000002B08D0194B1B6B23F080727B689B6BE1
:10450000164913430B637B681B6803F40013002BED
:1045100008D0124B1B6B23F000727B68DB6B0F49DA
:1045200013430B637B681B6803F48003002B08D0E4
:104530000A4B1B6B23F480627B685B6C0749134357
:104540000B637B681B6803F40003002B0CD0034B48
:104550001B6B23F400627B6802E000BF0010024086
:104560009B6C134913430B637B681B6803F08073D8
:10457000002B08D00E4B1B6B23F400527B68DB6CC6
:104580000B4913430B637B681B6803F00073002B1C
:1045900008D0074B1B6B23F400427B681B6D04495A
:1045A00013430B63002318464837BD4680BD00BF48
:1045B0000010024080B584B000AF78607B68002BAB
:1045C00001D101239DE07B685B6A002B08D17B68E9
:1045D0005B68B3F5827F09D07B680022DA6105E071
:1045E0007B6800221A617B6800225A617B68002286
:1045F0009A627B6893F85D30DBB2002B06D17B6852
:10460000002283F85C207868FBF7BCFF7B680222FD
:1046100083F85D207B681B681A687B681B6822F042
:1046200040021A607B68DB68B3F5E06F02D90023B3
:10463000FB6002E04FF48053FB607B68DB68B3F5FE
:10464000706F07D07B68DB68B3F5E06F02D07B68E2
:1046500000229A627B685B6803F482727B689B68C5
:1046600003F404431A437B681B6903F002031A43F3
:104670007B685B6903F001031A437B689B6903F461
:1046800000731A437B68DB6903F038031A437B68C5
:104690001B6A03F0800342EA03017B689B6A03F410
:1046A00000527B681B680A431A607B689B691B0C7D
:1046B00003F004027B685B6A03F010031A437B6813
:1046C0005B6B03F008031A437B68DB6803F47063D9
:1046D00042EA0301FB6803F480527B681B680A43CB
:1046E0005A607B681B68DA697B681B6822F4006289
:1046F000DA617B6800221A667B68012283F85D20FC
:10470000002318461037BD4680BD80B582B000AF8B
:1047100078607B68002B01D1012349E07B6893F826
:104720003D30DBB2002B06D17B68002283F83C20B1
:104730007868FCF78BF97B68022283F83D207B6860
:104740001A687B6804331946104600F049F97B6803
:10475000012283F848207B68012283F83E207B6891
:10476000012283F83F207B68012283F840207B6888
:10477000012283F841207B68012283F842207B6874
:10478000012283F843207B68012283F844207B6860
:10479000012283F845207B68012283F846207B684C
:1047A000012283F847207B68012283F83D20002303
:1047B00018460837BD4680BD80B586B000AFF860AA
:1047C000B9607A600023FB75FB6893F83C30012BDD
:1047D00001D10223FFE0FB68012283F83C207B68C3
:1047E000142B00F2F08001A252F823F04148000897
:1047F000C7490008C7490008C749000881480008A0
:10480000C7490008C7490008C7490008C34800084D
:10481000C7490008C7490008C749000803490008FC
:10482000C7490008C7490008C749000845490008AA
:10483000C7490008C7490008C7490008854900085A
:10484000FB681B68B968184600F074F9FB681B68C0
:104850009A69FB681B6842F008029A61FB681B6852
:104860009A69FB681B6822F004029A61FB681B6866
:104870009969BB681A69FB681B680A439A61A5E0DD
:10488000FB681B68B968184600F0EEF9FB681B6806
:104890009A69FB681B6842F400629A61FB681B68B6
:1048A0009A69FB681B6822F480629A61FB681B6846
:1048B0009969BB681B691A02FB681B680A439A6105
:1048C00084E0FB681B68B968184600F061FAFB6871
:1048D0001B68DA69FB681B6842F00802DA61FB6852
:1048E0001B68DA69FB681B6822F00402DA61FB6866
:1048F0001B68D969BB681A69FB681B680A43DA61DF
:1049000064E0FB681B68B968184600F0D3FAFB68DE
:104910001B68DA69FB681B6842F40062DA61FB68B5
:104920001B68DA69FB681B6822F48062DA61FB6845
:104930001B68D969BB681B691A02FB681B680A43BC
:10494000DA6143E0FB681B68B968184600F022FB97
:10495000FB681B685A6DFB681B6842F008025A65C9
:10496000FB681B685A6DFB681B6822F004025A65DD
:10497000FB681B68596DBB681A69FB681B680A43B2
:104980005A6523E0FB681B68B968184600F06CFBA9
:10499000FB681B685A6DFB681B6842F400625A652D
:1049A000FB681B685A6DFB681B6822F480625A65BD
:1049B000FB681B68596DBB681B691A02FB681B68A2
:1049C0000A435A6502E00123FB7500BFFB68002221
:1049D00083F83C20FB7D18461837BD4680BD00BFDC
:1049E00080B485B000AF786039607B681B68FB607D
:1049F0007B68484A934213D07B68B3F1804F0FD055
:104A00007B68454A93420BD07B68444A934207D067
:104A10007B68434A934203D07B68424A934208D161
:104A2000FB6823F07003FB603B685B68FA68134324
:104A3000FB607B68374A93421FD07B68B3F1804F9D
:104A40001BD07B68344A934217D07B68334A934229
:104A500013D07B68324A93420FD07B68324A93422C
:104A60000BD07B68314A934207D07B68304A93422F
:104A700003D07B682B4A934208D1FB6823F4407330
:104A8000FB603B68DB68FA681343FB60FB6823F05C
:104A900080023B685B691343FB607B68FA681A60BD
:104AA0003B689A687B68DA623B681A687B689A623E
:104AB0007B68184A934213D07B68194A93420FD0FF
:104AC0007B68194A93420BD07B68184A934207D0FF
:104AD0007B68174A934203D07B68124A934203D102
:104AE0003B681A697B681A637B6801225A617B689C
:104AF0001B6903F00103012B05D17B681B6923F0BF
:104B000001027B681A6100BF1437BD465DF8047B63
:104B1000704700BF002C0140000400400008004026
:104B20000034014000500140004001400044014079
:104B30000048014080B487B000AF786039607B687E
:104B40001B6A7B617B681B6A23F001027B681A6227
:104B50007B685B683B617B689B69FB60FB6823F457
:104B6000803323F07003FB60FB6823F00303FB60DA
:104B70003B681B68FA681343FB607B6923F0020300
:104B80007B613B689B687A6913437B617B68304A31
:104B9000934213D07B682F4A93420FD07B682E4AF2
:104BA00093420BD07B682D4A934207D07B682C4AF6
:104BB000934203D07B682B4A93420CD17B6923F04C
:104BC00008037B613B68DB687A6913437B617B691F
:104BD00023F004037B617B681D4A934213D07B68FA
:104BE0001C4A93420FD07B681B4A93420BD07B68D0
:104BF0001A4A934207D07B68194A934203D07B68D4
:104C0000184A934211D13B6923F480733B613B699D
:104C100023F400733B613B685B693A6913433B6172
:104C20003B689B693A6913433B617B683A695A6008
:104C30007B68FA689A613B685A687B685A637B684C
:104C40007A691A6200BF1C37BD465DF8047B704765
:104C5000002C01400034014000400140004401406C
:104C6000004801400050014080B487B000AF786038
:104C700039607B681B6A7B617B681B6A23F01002CA
:104C80007B681A627B685B683B617B689B69FB6041
:104C9000FB6823F0807323F4E043FB60FB6823F49C
:104CA0004073FB603B681B681B02FA681343FB60A0
:104CB0007B6923F020037B613B689B681B017A6959
:104CC00013437B617B682C4A934207D07B682B4A55
:104CD000934203D07B682A4A93420DD17B6923F02B
:104CE00080037B613B68DB681B017A6913437B614E
:104CF0007B6923F040037B617B681F4A934213D09A
:104D00007B681E4A93420FD07B681E4A93420BD0A9
:104D10007B681D4A934207D07B681C4A934203D0AC
:104D20007B68174A934213D13B6923F480633B614C
:104D30003B6923F400633B613B685B699B003A6914
:104D400013433B613B689B699B003A6913433B619A
:104D50007B683A695A607B68FA689A613B685A686E
:104D60007B689A637B687A691A6200BF1C37BD460C
:104D70005DF8047B704700BF002C01400034014007
:104D80000050014000400140004401400048014003
:104D900080B487B000AF786039607B681B6A7B6144
:104DA0007B681B6A23F480727B681A627B685B688D
:104DB0003B617B68DB69FB60FB6823F4803323F095
:104DC0007003FB60FB6823F00303FB603B681B6818
:104DD000FA681343FB607B6923F400737B613B68D3
:104DE0009B681B027A6913437B617B682B4A934261
:104DF00007D07B682A4A934203D07B68294A9342B2
:104E00000DD17B6923F400637B613B68DB681B0287
:104E10007A6913437B617B6923F480637B617B68E0
:104E20001E4A934213D07B681D4A93420FD07B6881
:104E30001D4A93420BD07B681C4A934207D07B6883
:104E40001B4A934203D07B68164A934213D13B69B5
:104E500023F480533B613B6923F400533B613B687F
:104E60005B691B013A6913433B613B689B691B010A
:104E70003A6913433B617B683A695A607B68FA6818
:104E8000DA613B685A687B68DA637B687A691A6220
:104E900000BF1C37BD465DF8047B7047002C014005
:104EA00000340140005001400040014000440140F6
:104EB0000048014080B487B000AF786039607B68FB
:104EC0001B6A3B617B681B6A23F480527B681A6211
:104ED0007B685B687B617B68DB69FB60FB6823F058
:104EE000807323F4E043FB60FB6823F44073FB60B2
:104EF0003B681B681B02FA681343FB603B6923F4A1
:104F000000533B613B689B681B033A6913433B6159
:104F10007B681A4A934213D07B68194A93420FD098
:104F20007B68184A93420BD07B68174A934207D09C
:104F30007B68164A934203D07B68154A934209D195
:104F40007B6923F480437B613B685B699B017A69E1
:104F500013437B617B687A695A607B68FA68DA611F
:104F60003B685A687B681A647B683A691A6200BFBA
:104F70001C37BD465DF8047B704700BF002C014024
:104F8000003401400040014000440140004801401D
:104F90000050014080B487B000AF786039607B6812
:104FA0001B6A3B617B681B6A23F480327B681A6250
:104FB0007B685B687B617B685B6DFB60FB6823F4EF
:104FC000803323F07003FB603B681B68FA6813436F
:104FD000FB603B6923F400333B613B689B681B0427
:104FE0003A6913433B617B68194A934213D07B684B
:104FF000184A93420FD07B68174A93420BD07B68C4
:10500000164A934207D07B68154A934203D07B68C7
:10501000144A934209D17B6923F480337B613B6856
:105020005B691B027A6913437B617B687A695A600A
:105030007B68FA685A653B685A687B689A657B6842
:105040003A691A6200BF1C37BD465DF8047B7047A1
:10505000002C014000340140004001400044014068
:10506000004801400050014080B487B000AF786034
:1050700039607B681B6A3B617B681B6A23F4801282
:105080007B681A627B685B687B617B685B6DFB6039
:10509000FB6823F0807323F4E043FB603B681B68EC
:1050A0001B02FA681343FB603B6923F400133B6166
:1050B0003B689B681B053A6913433B617B681A4A4E
:1050C000934213D07B68194A93420FD07B68184AE9
:1050D00093420BD07B68174A934207D07B68164AED
:1050E000934203D07B68154A934209D17B6923F42C
:1050F00080237B613B685B699B027A6913437B6118
:105100007B687A695A607B68FA685A653B685A68B6
:105110007B68DA657B683A691A6200BF1C37BD4656
:105120005DF8047B704700BF002C01400034014053
:10513000004001400044014000480140005001404F
:1051400080B485B000AF786039607B6893F83C30FC
:10515000012B01D102236DE07B68012283F83C2002
:105160007B68022283F83D207B681B685B68FB60DC
:105170007B681B689B68BB607B681B68304A9342F6
:1051800009D07B681B682F4A934204D07B681B6858
:105190002D4A934208D1FB6823F47003FB603B68FF
:1051A0005B68FA681343FB60FB6823F07003FB60E5
:1051B0003B681B68FA681343FB607B681B68FA68EE
:1051C0005A607B681B681E4A93421DD07B681B682F
:1051D000B3F1804F18D07B681B681C4A934213D0F0
:1051E0007B681B681A4A93420ED07B681B68154A7D
:1051F000934209D07B681B68164A934204D07B68AF
:105200001B68114A93420CD1BB6823F08003BB603A
:105210003B689B68BA681343BB607B681B68BA68CD
:105220009A607B68012283F83D207B68002283F826
:105230003C20002318461437BD465DF8047B7047B8
:10524000002C0140003401400050014000040040A7
:10525000000800400040014080B485B000AF786095
:1052600039600023FB607B6893F83C30012B01D14F
:1052700002236AE07B68012283F83C20FB6823F06C
:10528000FF023B68DB681343FB60FB6823F440725A
:105290003B689B681343FB60FB6823F480623B68B8
:1052A0005B681343FB60FB6823F400623B681B6888
:1052B0001343FB60FB6823F480523B681B69134374
:1052C000FB60FB6823F400523B685B691343FB609F
:1052D000FB6823F480423B689B6A1343FB60FB68D6
:1052E00023F470223B689B691B041343FB607B68BB
:1052F0001B68194A934209D07B681B68174A93427E
:1053000004D07B681B68164A934215D1FB6823F4CE
:1053100070023B685B6A1B051343FB60FB6823F06C
:1053200080723B68DB691343FB60FB6823F000720B
:105330003B681B6A1343FB607B681B68FA685A640E
:105340007B68002283F83C20002318461437BD46B2
:105350005DF8047B704700BF002C01400034014021
:105360000050014080B582B000AF78607B68002BB0
:1053700001D1012340E07B68DB6F002B06D17B6805
:10538000002283F878207868FBF720FC7B682422D1
:10539000DA677B681B681A687B681B6822F0010269
:1053A0001A607B685B6A002B02D0786800F0FCF919
:1053B000786800F025F80346012B01D101231BE09A
:1053C0007B681B685A687B681B6822F490425A60AD
:1053D0007B681B689A687B681B6822F02A029A60C7
:1053E0007B681B681A687B681B6842F001021A60C0
:1053F000786800F07BFA034618460837BD4680BD42
:1054000080B588B000AF78600023BB777B689A686E
:105410007B681B691A437B685B691A437B68DB699D
:1054200013437B617B681B681A68924B13407A6850
:10543000126879690B4313607B681B685B6823F40F
:1054400040517B68DA687B681B680A435A607B6856
:105450009B697B617B681B6A7A6913437B617B680C
:105460001B689B6823F430617B681B687A690A4378
:105470009A607B681B68804A934220D17F4B1B6BEC
:1054800003F00303032B17D801A252F823F000BF47
:10549000A1540008AD540008B3540008A7540008F4
:1054A0000123FB77B5E00223FB77B2E00423FB770F
:1054B000AFE00823FB77ACE01023FB77A9E07B6823
:1054C0001B686F4A934224D16C4B1B6B03F440332F
:1054D000B3F5403F11D0B3F5403F17D8B3F5003FC7
:1054E00011D0B3F5003F11D8002B03D0B3F5803FA6
:1054F00006D00BE00023FB778BE00223FB7788E0EC
:105500000423FB7785E00823FB7782E01023FB77F9
:105510007FE07B681B685B4A934224D1574B1B6B2F
:1055200003F44023B3F5402F11D0B3F5402F17D823
:10553000B3F5002F11D0B3F5002F11D8002B03D0F5
:10554000B3F5802F06D00BE00023FB7761E0022348
:10555000FB775EE00423FB775BE00823FB7758E0F2
:105560001023FB7755E07B681B68474A934224D1A0
:10557000424B1B6B03F44013B3F5401F11D0B3F53E
:10558000401F17D8B3F5001F11D0B3F5001F11D875
:10559000002B03D0B3F5801F06D00BE00023FB7770
:1055A00037E00223FB7734E00423FB7731E0082364
:1055B000FB772EE01023FB772BE07B681B68334AD8
:1055C000934224D12D4B1B6B03F44003B3F5400FE2
:1055D00011D0B3F5400F17D8B3F5000F11D0B3F5C4
:1055E000000F11D8002B03D0B3F5800F06D00BE0CD
:1055F0000023FB770DE00223FB770AE00423FB770F
:1056000007E00823FB7704E01023FB7701E0102379
:10561000FB777B68DB69B3F5004F6BD1FB7F082B11
:1056200038D801A252F823F04D560008555600080C
:105630005D56000895560008635600089556000808
:1056400095560008955600086B560008FEF750FD69
:10565000B86124E0FEF76EFDB86120E00C4BBB6141
:105660001DE0FEF7E3FCB86119E04FF40043BB61B5
:1056700015E000BFF369FFEF003801400010024061
:105680000044004000480040004C004000500040F2
:1056900000127A000023BB610123BB7700BFBB6906
:1056A000002B73D0BB695A007B685B685B081A44A7
:1056B0007B685B68B2FBF3F33B613B690F2B16D948
:1056C0003B69B3F5803F12D23B699BB223F00F03D5
:1056D000FB813B695B089BB203F007039AB2FB892D
:1056E0001343FB817B681B68FA89DA604EE0012373
:1056F000BB774BE0FB7F082B27D801A252F823F0A1
:10570000255700082D570008355700084B5700084B
:105710003B5700084B5700084B5700084B570008F1
:1057200043570008FEF7E4FCB86113E0FEF702FD02
:10573000B8610FE01B4BBB610CE0FEF777FCB86172
:1057400008E04FF40043BB6104E00023BB61012388
:10575000BB7700BFBB69002B18D07B685B685A0819
:10576000BB691A447B685B68B2FBF3F33B613B693E
:105770000F2B09D93B69B3F5803F05D23B699AB23B
:105780007B681B68DA6001E00123BB777B6800223D
:105790009A667B680022DA66BB7F18462037BD46D2
:1057A00080BD00BF00127A0080B483B000AF786083
:1057B0007B685B6A03F00803002B0AD07B681B68D8
:1057C0005B6823F400417B685A6B7B681B680A4363
:1057D0005A607B685B6A03F00103002B0AD07B6888
:1057E0001B685B6823F400317B689A6A7B681B68DE
:1057F0000A435A607B685B6A03F00203002B0AD0FD
:105800007B681B685B6823F480317B68DA6A7B689D
:105810001B680A435A607B685B6A03F00403002B31
:105820000AD07B681B685B6823F480217B681A6B55
:105830007B681B680A435A607B685B6A03F010034D
:10584000002B0AD07B681B689B6823F480517B681F
:105850009A6B7B681B680A439A607B685B6A03F0FB
:105860002003002B0AD07B681B689B6823F400513F
:105870007B68DA6B7B681B680A439A607B685B6AAB
:1058800003F04003002B1AD07B681B685B6823F48D
:1058900080117B681A6C7B681B680A435A607B68BE
:1058A0001B6CB3F5801F0AD17B681B685B6823F40F
:1058B000C0017B685A6C7B681B680A435A607B682E
:1058C0005B6A03F08003002B0AD07B681B685B686F
:1058D00023F400217B689A6C7B681B680A435A603A
:1058E00000BF0C37BD465DF8047B704780B598B0AB
:1058F00002AF78607B680022C3F88420FBF72EFAA1
:1059000078657B681B681B6803F00803082B2ED1A1
:105910006FF07E4300937B6D00224FF40011786896
:1059200000F08CF80346002B21D07B681B68BB631A
:10593000BB6B53E8003F7B637B6B23F080033B65CD
:105940007B681B681A463B6D7B643A64396C7A6CE1
:1059500041E80023FB63FB6B002BE6D17B68202230
:10596000DA677B68002283F87820032362E07B6893
:105970001B681B6803F00403042B49D16FF07E43BE
:1059800000937B6D00224FF48001786800F056F898
:105990000346002B3CD07B681B687B627B6A53E824
:1059A000003F3B623B6A23F49073FB647B681B6897
:1059B0001A46FB6C3B63FA62F96A3A6B41E80023D2
:1059C000BB62BB6A002BE6D17B681B6808333B6176
:1059D0003B6953E8003FFB60FB6823F00103BB64B5
:1059E0007B681B680833BA6CFA61BB61B969FA69F4
:1059F00041E800237B617B69002BE5D17B68202295
:105A0000C3F880207B68002283F87820032311E00C
:105A10007B682022DA677B682022C3F880207B68BD
:105A200000221A667B6800225A667B68002283F88F
:105A30007820002318465837BD4680BD80B584B015
:105A400000AFF860B9603B601346FB714FE0BB6983
:105A5000B3F1FF3F4BD0FBF781F902463B68D31A05
:105A6000BA699A4202D3BB69002B01D103234EE0ED
:105A7000FB681B681B6803F00403002B37D0BB686E
:105A8000802B34D0BB68402B31D0FB681B68DB69AE
:105A900003F00803082B10D1FB681B6808221A6268
:105AA000F86800F038F8FB680822C3F88420FB6827
:105AB000002283F87820012329E0FB681B68DB695A
:105AC00003F40063B3F5006F11D1FB681B684FF45A
:105AD00000621A62F86800F01EF8FB682022C3F822
